{
	"data": {
		"bytecode": {
			"linkReferences": {},
			"object": "6080604052348015600e575f80fd5b506110028061001c5f395ff3fe608060405234801561000f575f80fd5b506004361061007b575f3560e01c80637c9b7fdd116100595780637c9b7fdd1461010f57806387a9be511461013f578063a8cc77841461016f578063bea6f76b1461019f5761007b565b8063039463f91461007f5780631c14ce5e146100af578063376bbfbc146100df575b5f80fd5b61009960048036038101906100949190610a45565b6101cf565b6040516100a69190610ab9565b60405180910390f35b6100c960048036038101906100c49190610ad2565b6102c6565b6040516100d69190610ab9565b60405180910390f35b6100f960048036038101906100f49190610ad2565b6103eb565b6040516101069190610b28565b60405180910390f35b61012960048036038101906101249190610ad2565b610411565b6040516101369190610c0c565b60405180910390f35b61015960048036038101906101549190610a45565b610569565b6040516101669190610ab9565b60405180910390f35b61018960048036038101906101849190610ad2565b610777565b6040516101969190610ab9565b60405180910390f35b6101b960048036038101906101b49190610ad2565b6107aa565b6040516101c69190610b28565b60405180910390f35b5f6002836040516101e09190610c66565b90815260200160405180910390206001015f9054906101000a900460ff1661023d576040517f08c379a000000000000000000000000000000000000000000000000000000000815260040161023490610cd6565b60405180910390fd5b815f8460405161024d9190610c66565b9081526020016040518091039020541461029c576040517f08c379a000000000000000000000000000000000000000000000000000000000815260040161029390610d3e565b60405180910390fd5b5f836040516102ab9190610c66565b90815260200160405180910390205f90556001905092915050565b5f6002826040516102d79190610c66565b90815260200160405180910390206001015f9054906101000a900460ff16610334576040517f08c379a000000000000000000000000000000000000000000000000000000000815260040161032b90610cd6565b60405180910390fd5b5f620f424083424460405160200161034e93929190610d7c565b604051602081830303815290604052805190602001205f1c6103709190610de1565b9050805f846040516103829190610c66565b908152602001604051809103902081905550826040516103a29190610c66565b60405180910390207f3dee1c7a31bb13c79bbcd023d800fb0ceefe9ce463d0c3aceb466db70d1a7dc6826040516103d99190610b28565b60405180910390a26001915050919050565b5f80826040516103fb9190610c66565b9081526020016040518091039020549050919050565b6104196108a4565b6002826040516104299190610c66565b90815260200160405180910390206001015f9054906101000a900460ff16610486576040517f08c379a000000000000000000000000000000000000000000000000000000000815260040161047d90610cd6565b60405180910390fd5b6002826040516104969190610c66565b90815260200160405180910390206040518060600160405290815f820180546104be90610e3e565b80601f01602080910402602001604051908101604052809291908181526020018280546104ea90610e3e565b80156105355780601f1061050c57610100808354040283529160200191610535565b820191905f5260205f20905b81548152906001019060200180831161051857829003601f168201915b50505050508152602001600182015f9054906101000a900460ff161515151581526020016002820154815250509050919050565b5f808351116105ad576040517f08c379a00000000000000000000000000000000000000000000000000000000081526004016105a490610eb8565b60405180910390fd5b6001836040516105bd9190610c66565b90815260200160405180910390205f9054906101000a900460ff1615610618576040517f08c379a000000000000000000000000000000000000000000000000000000000815260040161060f90610f20565b60405180910390fd5b5f80846040516106289190610c66565b90815260200160405180910390205403610677576040517f08c379a000000000000000000000000000000000000000000000000000000000815260040161066e90610fae565b60405180910390fd5b815f846040516106879190610c66565b908152602001604051809103902054146106d6576040517f08c379a00000000000000000000000000000000000000000000000000000000081526004016106cd90610d3e565b60405180910390fd5b600180846040516106e79190610c66565b90815260200160405180910390205f6101000a81548160ff0219169083151502179055505f8360405161071a9190610c66565b90815260200160405180910390205f9055826040516107399190610c66565b60405180910390207f270ff4b111e5baa49283562af127cc5ea74e9d6c9efd5465578bd9223d5843f060405160405180910390a26001905092915050565b5f6001826040516107889190610c66565b90815260200160405180910390205f9054906101000a900460ff169050919050565b5f808251116107ee576040517f08c379a00000000000000000000000000000000000000000000000000000000081526004016107e590610eb8565b60405180910390fd5b5f620f424083424460405160200161080893929190610d7c565b604051602081830303815290604052805190602001205f1c61082a9190610de1565b9050805f8460405161083c9190610c66565b9081526020016040518091039020819055508260405161085c9190610c66565b60405180910390207f3dee1c7a31bb13c79bbcd023d800fb0ceefe9ce463d0c3aceb466db70d1a7dc6826040516108939190610b28565b60405180910390a280915050919050565b6040518060600160405280606081526020015f151581526020015f81525090565b5f604051905090565b5f80fd5b5f80fd5b5f80fd5b5f80fd5b5f601f19601f8301169050919050565b7f4e487b71000000000000000000000000000000000000000000000000000000005f52604160045260245ffd5b610924826108de565b810181811067ffffffffffffffff82111715610943576109426108ee565b5b80604052505050565b5f6109556108c5565b9050610961828261091b565b919050565b5f67ffffffffffffffff8211156109805761097f6108ee565b5b610989826108de565b9050602081019050919050565b828183375f83830152505050565b5f6109b66109b184610966565b61094c565b9050828152602081018484840111156109d2576109d16108da565b5b6109dd848285610996565b509392505050565b5f82601f8301126109f9576109f86108d6565b5b8135610a098482602086016109a4565b91505092915050565b5f819050919050565b610a2481610a12565b8114610a2e575f80fd5b50565b5f81359050610a3f81610a1b565b92915050565b5f8060408385031215610a5b57610a5a6108ce565b5b5f83013567ffffffffffffffff811115610a7857610a776108d2565b5b610a84858286016109e5565b9250506020610a9585828601610a31565b9150509250929050565b5f8115159050919050565b610ab381610a9f565b82525050565b5f602082019050610acc5f830184610aaa565b92915050565b5f60208284031215610ae757610ae66108ce565b5b5f82013567ffffffffffffffff811115610b0457610b036108d2565b5b610b10848285016109e5565b91505092915050565b610b2281610a12565b82525050565b5f602082019050610b3b5f830184610b19565b92915050565b5f81519050919050565b5f82825260208201905092915050565b8281835e5f83830152505050565b5f610b7382610b41565b610b7d8185610b4b565b9350610b8d818560208601610b5b565b610b96816108de565b840191505092915050565b610baa81610a9f565b82525050565b610bb981610a12565b82525050565b5f606083015f8301518482035f860152610bd98282610b69565b9150506020830151610bee6020860182610ba1565b506040830151610c016040860182610bb0565b508091505092915050565b5f6020820190508181035f830152610c248184610bbf565b905092915050565b5f81905092915050565b5f610c4082610b41565b610c4a8185610c2c565b9350610c5a818560208601610b5b565b80840191505092915050565b5f610c718284610c36565b915081905092915050565b5f82825260208201905092915050565b7f55736572206973206e6f742072656769737465726564000000000000000000005f82015250565b5f610cc0601683610c7c565b9150610ccb82610c8c565b602082019050919050565b5f6020820190508181035f830152610ced81610cb4565b9050919050565b7f496e76616c6964204f54500000000000000000000000000000000000000000005f82015250565b5f610d28600b83610c7c565b9150610d3382610cf4565b602082019050919050565b5f6020820190508181035f830152610d5581610d1c565b9050919050565b5f819050919050565b610d76610d7182610a12565b610d5c565b82525050565b5f610d878286610c36565b9150610d938285610d65565b602082019150610da38284610d65565b602082019150819050949350505050565b7f4e487b71000000000000000000000000000000000000000000000000000000005f52601260045260245ffd5b5f610deb82610a12565b9150610df683610a12565b925082610e0657610e05610db4565b5b828206905092915050565b7f4e487b71000000000000000000000000000000000000000000000000000000005f52602260045260245ffd5b5f6002820490506001821680610e5557607f821691505b602082108103610e6857610e67610e11565b5b50919050565b7f4964656e7469666965722063616e6e6f7420626520656d7074790000000000005f82015250565b5f610ea2601a83610c7c565b9150610ead82610e6e565b602082019050919050565b5f6020820190508181035f830152610ecf81610e96565b9050919050565b7f5573657220697320616c726561647920726567697374657265640000000000005f82015250565b5f610f0a601a83610c7c565b9150610f1582610ed6565b602082019050919050565b5f6020820190508181035f830152610f3781610efe565b9050919050565b7f4f5450206e6f742067656e65726174656420666f722074686973206964656e745f8201527f6966696572000000000000000000000000000000000000000000000000000000602082015250565b5f610f98602583610c7c565b9150610fa382610f3e565b604082019050919050565b5f6020820190508181035f830152610fc581610f8c565b905091905056fea2646970667358221220b6d58c025e42c079a79c44921503e9b1a39c53dc954386943c34992b85b854ef64736f6c634300081a0033",
			"opcodes": "PUSH1 0x80 PUSH1 0x40 MSTORE CALLVALUE DUP1 ISZERO PUSH1 0xE JUMPI PUSH0 DUP1 REVERT JUMPDEST POP PUSH2 0x1002 DUP1 PUSH2 0x1C PUSH0 CODECOPY PUSH0 RETURN INVALID PUSH1 0x80 PUSH1 0x40 MSTORE CALLVALUE DUP1 ISZERO PUSH2 0xF JUMPI PUSH0 DUP1 REVERT JUMPDEST POP PUSH1 0x4 CALLDATASIZE LT PUSH2 0x7B JUMPI PUSH0 CALLDATALOAD PUSH1 0xE0 SHR DUP1 PUSH4 0x7C9B7FDD GT PUSH2 0x59 JUMPI DUP1 PUSH4 0x7C9B7FDD EQ PUSH2 0x10F JUMPI DUP1 PUSH4 0x87A9BE51 EQ PUSH2 0x13F JUMPI DUP1 PUSH4 0xA8CC7784 EQ PUSH2 0x16F JUMPI DUP1 PUSH4 0xBEA6F76B EQ PUSH2 0x19F JUMPI PUSH2 0x7B JUMP JUMPDEST DUP1 PUSH4 0x39463F9 EQ PUSH2 0x7F JUMPI DUP1 PUSH4 0x1C14CE5E EQ PUSH2 0xAF JUMPI DUP1 PUSH4 0x376BBFBC EQ PUSH2 0xDF JUMPI JUMPDEST PUSH0 DUP1 REVERT JUMPDEST PUSH2 0x99 PUSH1 0x4 DUP1 CALLDATASIZE SUB DUP2 ADD SWAP1 PUSH2 0x94 SWAP2 SWAP1 PUSH2 0xA45 JUMP JUMPDEST PUSH2 0x1CF JUMP JUMPDEST PUSH1 0x40 MLOAD PUSH2 0xA6 SWAP2 SWAP1 PUSH2 0xAB9 JUMP JUMPDEST PUSH1 0x40 MLOAD DUP1 SWAP2 SUB SWAP1 RETURN JUMPDEST PUSH2 0xC9 PUSH1 0x4 DUP1 CALLDATASIZE SUB DUP2 ADD SWAP1 PUSH2 0xC4 SWAP2 SWAP1 PUSH2 0xAD2 JUMP JUMPDEST PUSH2 0x2C6 JUMP JUMPDEST PUSH1 0x40 MLOAD PUSH2 0xD6 SWAP2 SWAP1 PUSH2 0xAB9 JUMP JUMPDEST PUSH1 0x40 MLOAD DUP1 SWAP2 SUB SWAP1 RETURN JUMPDEST PUSH2 0xF9 PUSH1 0x4 DUP1 CALLDATASIZE SUB DUP2 ADD SWAP1 PUSH2 0xF4 SWAP2 SWAP1 PUSH2 0xAD2 JUMP JUMPDEST PUSH2 0x3EB JUMP JUMPDEST PUSH1 0x40 MLOAD PUSH2 0x106 SWAP2 SWAP1 PUSH2 0xB28 JUMP JUMPDEST PUSH1 0x40 MLOAD DUP1 SWAP2 SUB SWAP1 RETURN JUMPDEST PUSH2 0x129 PUSH1 0x4 DUP1 CALLDATASIZE SUB DUP2 ADD SWAP1 PUSH2 0x124 SWAP2 SWAP1 PUSH2 0xAD2 JUMP JUMPDEST PUSH2 0x411 JUMP JUMPDEST PUSH1 0x40 MLOAD PUSH2 0x136 SWAP2 SWAP1 PUSH2 0xC0C JUMP JUMPDEST PUSH1 0x40 MLOAD DUP1 SWAP2 SUB SWAP1 RETURN JUMPDEST PUSH2 0x159 PUSH1 0x4 DUP1 CALLDATASIZE SUB DUP2 ADD SWAP1 PUSH2 0x154 SWAP2 SWAP1 PUSH2 0xA45 JUMP JUMPDEST PUSH2 0x569 JUMP JUMPDEST PUSH1 0x40 MLOAD PUSH2 0x166 SWAP2 SWAP1 PUSH2 0xAB9 JUMP JUMPDEST PUSH1 0x40 MLOAD DUP1 SWAP2 SUB SWAP1 RETURN JUMPDEST PUSH2 0x189 PUSH1 0x4 DUP1 CALLDATASIZE SUB DUP2 ADD SWAP1 PUSH2 0x184 SWAP2 SWAP1 PUSH2 0xAD2 JUMP JUMPDEST PUSH2 0x777 JUMP JUMPDEST PUSH1 0x40 MLOAD PUSH2 0x196 SWAP2 SWAP1 PUSH2 0xAB9 JUMP JUMPDEST PUSH1 0x40 MLOAD DUP1 SWAP2 SUB SWAP1 RETURN JUMPDEST PUSH2 0x1B9 PUSH1 0x4 DUP1 CALLDATASIZE SUB DUP2 ADD SWAP1 PUSH2 0x1B4 SWAP2 SWAP1 PUSH2 0xAD2 JUMP JUMPDEST PUSH2 0x7AA JUMP JUMPDEST PUSH1 0x40 MLOAD PUSH2 0x1C6 SWAP2 SWAP1 PUSH2 0xB28 JUMP JUMPDEST PUSH1 0x40 MLOAD DUP1 SWAP2 SUB SWAP1 RETURN JUMPDEST PUSH0 PUSH1 0x2 DUP4 PUSH1 0x40 MLOAD PUSH2 0x1E0 SWAP2 SWAP1 PUSH2 0xC66 JUMP JUMPDEST SWAP1 DUP2 MSTORE PUSH1 0x20 ADD PUSH1 0x40 MLOAD DUP1 SWAP2 SUB SWAP1 KECCAK256 PUSH1 0x1 ADD PUSH0 SWAP1 SLOAD SWAP1 PUSH2 0x100 EXP SWAP1 DIV PUSH1 0xFF AND PUSH2 0x23D JUMPI PUSH1 0x40 MLOAD PUSH32 0x8C379A000000000000000000000000000000000000000000000000000000000 DUP2 MSTORE PUSH1 0x4 ADD PUSH2 0x234 SWAP1 PUSH2 0xCD6 JUMP JUMPDEST PUSH1 0x40 MLOAD DUP1 SWAP2 SUB SWAP1 REVERT JUMPDEST DUP2 PUSH0 DUP5 PUSH1 0x40 MLOAD PUSH2 0x24D SWAP2 SWAP1 PUSH2 0xC66 JUMP JUMPDEST SWAP1 DUP2 MSTORE PUSH1 0x20 ADD PUSH1 0x40 MLOAD DUP1 SWAP2 SUB SWAP1 KECCAK256 SLOAD EQ PUSH2 0x29C JUMPI PUSH1 0x40 MLOAD PUSH32 0x8C379A000000000000000000000000000000000000000000000000000000000 DUP2 MSTORE PUSH1 0x4 ADD PUSH2 0x293 SWAP1 PUSH2 0xD3E JUMP JUMPDEST PUSH1 0x40 MLOAD DUP1 SWAP2 SUB SWAP1 REVERT JUMPDEST PUSH0 DUP4 PUSH1 0x40 MLOAD PUSH2 0x2AB SWAP2 SWAP1 PUSH2 0xC66 JUMP JUMPDEST SWAP1 DUP2 MSTORE PUSH1 0x20 ADD PUSH1 0x40 MLOAD DUP1 SWAP2 SUB SWAP1 KECCAK256 PUSH0 SWAP1 SSTORE PUSH1 0x1 SWAP1 POP SWAP3 SWAP2 POP POP JUMP JUMPDEST PUSH0 PUSH1 0x2 DUP3 PUSH1 0x40 MLOAD PUSH2 0x2D7 SWAP2 SWAP1 PUSH2 0xC66 JUMP JUMPDEST SWAP1 DUP2 MSTORE PUSH1 0x20 ADD PUSH1 0x40 MLOAD DUP1 SWAP2 SUB SWAP1 KECCAK256 PUSH1 0x1 ADD PUSH0 SWAP1 SLOAD SWAP1 PUSH2 0x100 EXP SWAP1 DIV PUSH1 0xFF AND PUSH2 0x334 JUMPI PUSH1 0x40 MLOAD PUSH32 0x8C379A000000000000000000000000000000000000000000000000000000000 DUP2 MSTORE PUSH1 0x4 ADD PUSH2 0x32B SWAP1 PUSH2 0xCD6 JUMP JUMPDEST PUSH1 0x40 MLOAD DUP1 SWAP2 SUB SWAP1 REVERT JUMPDEST PUSH0 PUSH3 0xF4240 DUP4 TIMESTAMP PREVRANDAO PUSH1 0x40 MLOAD PUSH1 0x20 ADD PUSH2 0x34E SWAP4 SWAP3 SWAP2 SWAP1 PUSH2 0xD7C JUMP JUMPDEST PUSH1 0x40 MLOAD PUSH1 0x20 DUP2 DUP4 SUB SUB DUP2 MSTORE SWAP1 PUSH1 0x40 MSTORE DUP1 MLOAD SWAP1 PUSH1 0x20 ADD KECCAK256 PUSH0 SHR PUSH2 0x370 SWAP2 SWAP1 PUSH2 0xDE1 JUMP JUMPDEST SWAP1 POP DUP1 PUSH0 DUP5 PUSH1 0x40 MLOAD PUSH2 0x382 SWAP2 SWAP1 PUSH2 0xC66 JUMP JUMPDEST SWAP1 DUP2 MSTORE PUSH1 0x20 ADD PUSH1 0x40 MLOAD DUP1 SWAP2 SUB SWAP1 KECCAK256 DUP2 SWAP1 SSTORE POP DUP3 PUSH1 0x40 MLOAD PUSH2 0x3A2 SWAP2 SWAP1 PUSH2 0xC66 JUMP JUMPDEST PUSH1 0x40 MLOAD DUP1 SWAP2 SUB SWAP1 KECCAK256 PUSH32 0x3DEE1C7A31BB13C79BBCD023D800FB0CEEFE9CE463D0C3ACEB466DB70D1A7DC6 DUP3 PUSH1 0x40 MLOAD PUSH2 0x3D9 SWAP2 SWAP1 PUSH2 0xB28 JUMP JUMPDEST PUSH1 0x40 MLOAD DUP1 SWAP2 SUB SWAP1 LOG2 PUSH1 0x1 SWAP2 POP POP SWAP2 SWAP1 POP JUMP JUMPDEST PUSH0 DUP1 DUP3 PUSH1 0x40 MLOAD PUSH2 0x3FB SWAP2 SWAP1 PUSH2 0xC66 JUMP JUMPDEST SWAP1 DUP2 MSTORE PUSH1 0x20 ADD PUSH1 0x40 MLOAD DUP1 SWAP2 SUB SWAP1 KECCAK256 SLOAD SWAP1 POP SWAP2 SWAP1 POP JUMP JUMPDEST PUSH2 0x419 PUSH2 0x8A4 JUMP JUMPDEST PUSH1 0x2 DUP3 PUSH1 0x40 MLOAD PUSH2 0x429 SWAP2 SWAP1 PUSH2 0xC66 JUMP JUMPDEST SWAP1 DUP2 MSTORE PUSH1 0x20 ADD PUSH1 0x40 MLOAD DUP1 SWAP2 SUB SWAP1 KECCAK256 PUSH1 0x1 ADD PUSH0 SWAP1 SLOAD SWAP1 PUSH2 0x100 EXP SWAP1 DIV PUSH1 0xFF AND PUSH2 0x486 JUMPI PUSH1 0x40 MLOAD PUSH32 0x8C379A000000000000000000000000000000000000000000000000000000000 DUP2 MSTORE PUSH1 0x4 ADD PUSH2 0x47D SWAP1 PUSH2 0xCD6 JUMP JUMPDEST PUSH1 0x40 MLOAD DUP1 SWAP2 SUB SWAP1 REVERT JUMPDEST PUSH1 0x2 DUP3 PUSH1 0x40 MLOAD PUSH2 0x496 SWAP2 SWAP1 PUSH2 0xC66 JUMP JUMPDEST SWAP1 DUP2 MSTORE PUSH1 0x20 ADD PUSH1 0x40 MLOAD DUP1 SWAP2 SUB SWAP1 KECCAK256 PUSH1 0x40 MLOAD DUP1 PUSH1 0x60 ADD PUSH1 0x40 MSTORE SWAP1 DUP2 PUSH0 DUP3 ADD DUP1 SLOAD PUSH2 0x4BE SWAP1 PUSH2 0xE3E JUMP JUMPDEST DUP1 PUSH1 0x1F ADD PUSH1 0x20 DUP1 SWAP2 DIV MUL PUSH1 0x20 ADD PUSH1 0x40 MLOAD SWAP1 DUP2 ADD PUSH1 0x40 MSTORE DUP1 SWAP3 SWAP2 SWAP1 DUP2 DUP2 MSTORE PUSH1 0x20 ADD DUP3 DUP1 SLOAD PUSH2 0x4EA SWAP1 PUSH2 0xE3E JUMP JUMPDEST DUP1 ISZERO PUSH2 0x535 JUMPI DUP1 PUSH1 0x1F LT PUSH2 0x50C JUMPI PUSH2 0x100 DUP1 DUP4 SLOAD DIV MUL DUP4 MSTORE SWAP2 PUSH1 0x20 ADD SWAP2 PUSH2 0x535 JUMP JUMPDEST DUP3 ADD SWAP2 SWAP1 PUSH0 MSTORE PUSH1 0x20 PUSH0 KECCAK256 SWAP1 JUMPDEST DUP2 SLOAD DUP2 MSTORE SWAP1 PUSH1 0x1 ADD SWAP1 PUSH1 0x20 ADD DUP1 DUP4 GT PUSH2 0x518 JUMPI DUP3 SWAP1 SUB PUSH1 0x1F AND DUP3 ADD SWAP2 JUMPDEST POP POP POP POP POP DUP2 MSTORE PUSH1 0x20 ADD PUSH1 0x1 DUP3 ADD PUSH0 SWAP1 SLOAD SWAP1 PUSH2 0x100 EXP SWAP1 DIV PUSH1 0xFF AND ISZERO ISZERO ISZERO ISZERO DUP2 MSTORE PUSH1 0x20 ADD PUSH1 0x2 DUP3 ADD SLOAD DUP2 MSTORE POP POP SWAP1 POP SWAP2 SWAP1 POP JUMP JUMPDEST PUSH0 DUP1 DUP4 MLOAD GT PUSH2 0x5AD JUMPI PUSH1 0x40 MLOAD PUSH32 0x8C379A000000000000000000000000000000000000000000000000000000000 DUP2 MSTORE PUSH1 0x4 ADD PUSH2 0x5A4 SWAP1 PUSH2 0xEB8 JUMP JUMPDEST PUSH1 0x40 MLOAD DUP1 SWAP2 SUB SWAP1 REVERT JUMPDEST PUSH1 0x1 DUP4 PUSH1 0x40 MLOAD PUSH2 0x5BD SWAP2 SWAP1 PUSH2 0xC66 JUMP JUMPDEST SWAP1 DUP2 MSTORE PUSH1 0x20 ADD PUSH1 0x40 MLOAD DUP1 SWAP2 SUB SWAP1 KECCAK256 PUSH0 SWAP1 SLOAD SWAP1 PUSH2 0x100 EXP SWAP1 DIV PUSH1 0xFF AND ISZERO PUSH2 0x618 JUMPI PUSH1 0x40 MLOAD PUSH32 0x8C379A000000000000000000000000000000000000000000000000000000000 DUP2 MSTORE PUSH1 0x4 ADD PUSH2 0x60F SWAP1 PUSH2 0xF20 JUMP JUMPDEST PUSH1 0x40 MLOAD DUP1 SWAP2 SUB SWAP1 REVERT JUMPDEST PUSH0 DUP1 DUP5 PUSH1 0x40 MLOAD PUSH2 0x628 SWAP2 SWAP1 PUSH2 0xC66 JUMP JUMPDEST SWAP1 DUP2 MSTORE PUSH1 0x20 ADD PUSH1 0x40 MLOAD DUP1 SWAP2 SUB SWAP1 KECCAK256 SLOAD SUB PUSH2 0x677 JUMPI PUSH1 0x40 MLOAD PUSH32 0x8C379A000000000000000000000000000000000000000000000000000000000 DUP2 MSTORE PUSH1 0x4 ADD PUSH2 0x66E SWAP1 PUSH2 0xFAE JUMP JUMPDEST PUSH1 0x40 MLOAD DUP1 SWAP2 SUB SWAP1 REVERT JUMPDEST DUP2 PUSH0 DUP5 PUSH1 0x40 MLOAD PUSH2 0x687 SWAP2 SWAP1 PUSH2 0xC66 JUMP JUMPDEST SWAP1 DUP2 MSTORE PUSH1 0x20 ADD PUSH1 0x40 MLOAD DUP1 SWAP2 SUB SWAP1 KECCAK256 SLOAD EQ PUSH2 0x6D6 JUMPI PUSH1 0x40 MLOAD PUSH32 0x8C379A000000000000000000000000000000000000000000000000000000000 DUP2 MSTORE PUSH1 0x4 ADD PUSH2 0x6CD SWAP1 PUSH2 0xD3E JUMP JUMPDEST PUSH1 0x40 MLOAD DUP1 SWAP2 SUB SWAP1 REVERT JUMPDEST PUSH1 0x1 DUP1 DUP5 PUSH1 0x40 MLOAD PUSH2 0x6E7 SWAP2 SWAP1 PUSH2 0xC66 JUMP JUMPDEST SWAP1 DUP2 MSTORE PUSH1 0x20 ADD PUSH1 0x40 MLOAD DUP1 SWAP2 SUB SWAP1 KECCAK256 PUSH0 PUSH2 0x100 EXP DUP2 SLOAD DUP2 PUSH1 0xFF MUL NOT AND SWAP1 DUP4 ISZERO ISZERO MUL OR SWAP1 SSTORE POP PUSH0 DUP4 PUSH1 0x40 MLOAD PUSH2 0x71A SWAP2 SWAP1 PUSH2 0xC66 JUMP JUMPDEST SWAP1 DUP2 MSTORE PUSH1 0x20 ADD PUSH1 0x40 MLOAD DUP1 SWAP2 SUB SWAP1 KECCAK256 PUSH0 SWAP1 SSTORE DUP3 PUSH1 0x40 MLOAD PUSH2 0x739 SWAP2 SWAP1 PUSH2 0xC66 JUMP JUMPDEST PUSH1 0x40 MLOAD DUP1 SWAP2 SUB SWAP1 KECCAK256 PUSH32 0x270FF4B111E5BAA49283562AF127CC5EA74E9D6C9EFD5465578BD9223D5843F0 PUSH1 0x40 MLOAD PUSH1 0x40 MLOAD DUP1 SWAP2 SUB SWAP1 LOG2 PUSH1 0x1 SWAP1 POP SWAP3 SWAP2 POP POP JUMP JUMPDEST PUSH0 PUSH1 0x1 DUP3 PUSH1 0x40 MLOAD PUSH2 0x788 SWAP2 SWAP1 PUSH2 0xC66 JUMP JUMPDEST SWAP1 DUP2 MSTORE PUSH1 0x20 ADD PUSH1 0x40 MLOAD DUP1 SWAP2 SUB SWAP1 KECCAK256 PUSH0 SWAP1 SLOAD SWAP1 PUSH2 0x100 EXP SWAP1 DIV PUSH1 0xFF AND SWAP1 POP SWAP2 SWAP1 POP JUMP JUMPDEST PUSH0 DUP1 DUP3 MLOAD GT PUSH2 0x7EE JUMPI PUSH1 0x40 MLOAD PUSH32 0x8C379A000000000000000000000000000000000000000000000000000000000 DUP2 MSTORE PUSH1 0x4 ADD PUSH2 0x7E5 SWAP1 PUSH2 0xEB8 JUMP JUMPDEST PUSH1 0x40 MLOAD DUP1 SWAP2 SUB SWAP1 REVERT JUMPDEST PUSH0 PUSH3 0xF4240 DUP4 TIMESTAMP PREVRANDAO PUSH1 0x40 MLOAD PUSH1 0x20 ADD PUSH2 0x808 SWAP4 SWAP3 SWAP2 SWAP1 PUSH2 0xD7C JUMP JUMPDEST PUSH1 0x40 MLOAD PUSH1 0x20 DUP2 DUP4 SUB SUB DUP2 MSTORE SWAP1 PUSH1 0x40 MSTORE DUP1 MLOAD SWAP1 PUSH1 0x20 ADD KECCAK256 PUSH0 SHR PUSH2 0x82A SWAP2 SWAP1 PUSH2 0xDE1 JUMP JUMPDEST SWAP1 POP DUP1 PUSH0 DUP5 PUSH1 0x40 MLOAD PUSH2 0x83C SWAP2 SWAP1 PUSH2 0xC66 JUMP JUMPDEST SWAP1 DUP2 MSTORE PUSH1 0x20 ADD PUSH1 0x40 MLOAD DUP1 SWAP2 SUB SWAP1 KECCAK256 DUP2 SWAP1 SSTORE POP DUP3 PUSH1 0x40 MLOAD PUSH2 0x85C SWAP2 SWAP1 PUSH2 0xC66 JUMP JUMPDEST PUSH1 0x40 MLOAD DUP1 SWAP2 SUB SWAP1 KECCAK256 PUSH32 0x3DEE1C7A31BB13C79BBCD023D800FB0CEEFE9CE463D0C3ACEB466DB70D1A7DC6 DUP3 PUSH1 0x40 MLOAD PUSH2 0x893 SWAP2 SWAP1 PUSH2 0xB28 JUMP JUMPDEST PUSH1 0x40 MLOAD DUP1 SWAP2 SUB SWAP1 LOG2 DUP1 SWAP2 POP POP SWAP2 SWAP1 POP JUMP JUMPDEST PUSH1 0x40 MLOAD DUP1 PUSH1 0x60 ADD PUSH1 0x40 MSTORE DUP1 PUSH1 0x60 DUP2 MSTORE PUSH1 0x20 ADD PUSH0 ISZERO ISZERO DUP2 MSTORE PUSH1 0x20 ADD PUSH0 DUP2 MSTORE POP SWAP1 JUMP JUMPDEST PUSH0 PUSH1 0x40 MLOAD SWAP1 POP SWAP1 JUMP JUMPDEST PUSH0 DUP1 REVERT JUMPDEST PUSH0 DUP1 REVERT JUMPDEST PUSH0 DUP1 REVERT JUMPDEST PUSH0 DUP1 REVERT JUMPDEST PUSH0 PUSH1 0x1F NOT PUSH1 0x1F DUP4 ADD AND SWAP1 POP SWAP2 SWAP1 POP JUMP JUMPDEST PUSH32 0x4E487B7100000000000000000000000000000000000000000000000000000000 PUSH0 MSTORE PUSH1 0x41 PUSH1 0x4 MSTORE PUSH1 0x24 PUSH0 REVERT JUMPDEST PUSH2 0x924 DUP3 PUSH2 0x8DE JUMP JUMPDEST DUP2 ADD DUP2 DUP2 LT PUSH8 0xFFFFFFFFFFFFFFFF DUP3 GT OR ISZERO PUSH2 0x943 JUMPI PUSH2 0x942 PUSH2 0x8EE JUMP JUMPDEST JUMPDEST DUP1 PUSH1 0x40 MSTORE POP POP POP JUMP JUMPDEST PUSH0 PUSH2 0x955 PUSH2 0x8C5 JUMP JUMPDEST SWAP1 POP PUSH2 0x961 DUP3 DUP3 PUSH2 0x91B JUMP JUMPDEST SWAP2 SWAP1 POP JUMP JUMPDEST PUSH0 PUSH8 0xFFFFFFFFFFFFFFFF DUP3 GT ISZERO PUSH2 0x980 JUMPI PUSH2 0x97F PUSH2 0x8EE JUMP JUMPDEST JUMPDEST PUSH2 0x989 DUP3 PUSH2 0x8DE JUMP JUMPDEST SWAP1 POP PUSH1 0x20 DUP2 ADD SWAP1 POP SWAP2 SWAP1 POP JUMP JUMPDEST DUP3 DUP2 DUP4 CALLDATACOPY PUSH0 DUP4 DUP4 ADD MSTORE POP POP POP JUMP JUMPDEST PUSH0 PUSH2 0x9B6 PUSH2 0x9B1 DUP5 PUSH2 0x966 JUMP JUMPDEST PUSH2 0x94C JUMP JUMPDEST SWAP1 POP DUP3 DUP2 MSTORE PUSH1 0x20 DUP2 ADD DUP5 DUP5 DUP5 ADD GT ISZERO PUSH2 0x9D2 JUMPI PUSH2 0x9D1 PUSH2 0x8DA JUMP JUMPDEST JUMPDEST PUSH2 0x9DD DUP5 DUP3 DUP6 PUSH2 0x996 JUMP JUMPDEST POP SWAP4 SWAP3 POP POP POP JUMP JUMPDEST PUSH0 DUP3 PUSH1 0x1F DUP4 ADD SLT PUSH2 0x9F9 JUMPI PUSH2 0x9F8 PUSH2 0x8D6 JUMP JUMPDEST JUMPDEST DUP2 CALLDATALOAD PUSH2 0xA09 DUP5 DUP3 PUSH1 0x20 DUP7 ADD PUSH2 0x9A4 JUMP JUMPDEST SWAP2 POP POP SWAP3 SWAP2 POP POP JUMP JUMPDEST PUSH0 DUP2 SWAP1 POP SWAP2 SWAP1 POP JUMP JUMPDEST PUSH2 0xA24 DUP2 PUSH2 0xA12 JUMP JUMPDEST DUP2 EQ PUSH2 0xA2E JUMPI PUSH0 DUP1 REVERT JUMPDEST POP JUMP JUMPDEST PUSH0 DUP2 CALLDATALOAD SWAP1 POP PUSH2 0xA3F DUP2 PUSH2 0xA1B JUMP JUMPDEST SWAP3 SWAP2 POP POP JUMP JUMPDEST PUSH0 DUP1 PUSH1 0x40 DUP4 DUP6 SUB SLT ISZERO PUSH2 0xA5B JUMPI PUSH2 0xA5A PUSH2 0x8CE JUMP JUMPDEST JUMPDEST PUSH0 DUP4 ADD CALLDATALOAD PUSH8 0xFFFFFFFFFFFFFFFF DUP2 GT ISZERO PUSH2 0xA78 JUMPI PUSH2 0xA77 PUSH2 0x8D2 JUMP JUMPDEST JUMPDEST PUSH2 0xA84 DUP6 DUP3 DUP7 ADD PUSH2 0x9E5 JUMP JUMPDEST SWAP3 POP POP PUSH1 0x20 PUSH2 0xA95 DUP6 DUP3 DUP7 ADD PUSH2 0xA31 JUMP JUMPDEST SWAP2 POP POP SWAP3 POP SWAP3 SWAP1 POP JUMP JUMPDEST PUSH0 DUP2 ISZERO ISZERO SWAP1 POP SWAP2 SWAP1 POP JUMP JUMPDEST PUSH2 0xAB3 DUP2 PUSH2 0xA9F JUMP JUMPDEST DUP3 MSTORE POP POP JUMP JUMPDEST PUSH0 PUSH1 0x20 DUP3 ADD SWAP1 POP PUSH2 0xACC PUSH0 DUP4 ADD DUP5 PUSH2 0xAAA JUMP JUMPDEST SWAP3 SWAP2 POP POP JUMP JUMPDEST PUSH0 PUSH1 0x20 DUP3 DUP5 SUB SLT ISZERO PUSH2 0xAE7 JUMPI PUSH2 0xAE6 PUSH2 0x8CE JUMP JUMPDEST JUMPDEST PUSH0 DUP3 ADD CALLDATALOAD PUSH8 0xFFFFFFFFFFFFFFFF DUP2 GT ISZERO PUSH2 0xB04 JUMPI PUSH2 0xB03 PUSH2 0x8D2 JUMP JUMPDEST JUMPDEST PUSH2 0xB10 DUP5 DUP3 DUP6 ADD PUSH2 0x9E5 JUMP JUMPDEST SWAP2 POP POP SWAP3 SWAP2 POP POP JUMP JUMPDEST PUSH2 0xB22 DUP2 PUSH2 0xA12 JUMP JUMPDEST DUP3 MSTORE POP POP JUMP JUMPDEST PUSH0 PUSH1 0x20 DUP3 ADD SWAP1 POP PUSH2 0xB3B PUSH0 DUP4 ADD DUP5 PUSH2 0xB19 JUMP JUMPDEST SWAP3 SWAP2 POP POP JUMP JUMPDEST PUSH0 DUP2 MLOAD SWAP1 POP SWAP2 SWAP1 POP JUMP JUMPDEST PUSH0 DUP3 DUP3 MSTORE PUSH1 0x20 DUP3 ADD SWAP1 POP SWAP3 SWAP2 POP POP JUMP JUMPDEST DUP3 DUP2 DUP4 MCOPY PUSH0 DUP4 DUP4 ADD MSTORE POP POP POP JUMP JUMPDEST PUSH0 PUSH2 0xB73 DUP3 PUSH2 0xB41 JUMP JUMPDEST PUSH2 0xB7D DUP2 DUP6 PUSH2 0xB4B JUMP JUMPDEST SWAP4 POP PUSH2 0xB8D DUP2 DUP6 PUSH1 0x20 DUP7 ADD PUSH2 0xB5B JUMP JUMPDEST PUSH2 0xB96 DUP2 PUSH2 0x8DE JUMP JUMPDEST DUP5 ADD SWAP2 POP POP SWAP3 SWAP2 POP POP JUMP JUMPDEST PUSH2 0xBAA DUP2 PUSH2 0xA9F JUMP JUMPDEST DUP3 MSTORE POP POP JUMP JUMPDEST PUSH2 0xBB9 DUP2 PUSH2 0xA12 JUMP JUMPDEST DUP3 MSTORE POP POP JUMP JUMPDEST PUSH0 PUSH1 0x60 DUP4 ADD PUSH0 DUP4 ADD MLOAD DUP5 DUP3 SUB PUSH0 DUP7 ADD MSTORE PUSH2 0xBD9 DUP3 DUP3 PUSH2 0xB69 JUMP JUMPDEST SWAP2 POP POP PUSH1 0x20 DUP4 ADD MLOAD PUSH2 0xBEE PUSH1 0x20 DUP7 ADD DUP3 PUSH2 0xBA1 JUMP JUMPDEST POP PUSH1 0x40 DUP4 ADD MLOAD PUSH2 0xC01 PUSH1 0x40 DUP7 ADD DUP3 PUSH2 0xBB0 JUMP JUMPDEST POP DUP1 SWAP2 POP POP SWAP3 SWAP2 POP POP JUMP JUMPDEST PUSH0 PUSH1 0x20 DUP3 ADD SWAP1 POP DUP2 DUP2 SUB PUSH0 DUP4 ADD MSTORE PUSH2 0xC24 DUP2 DUP5 PUSH2 0xBBF JUMP JUMPDEST SWAP1 POP SWAP3 SWAP2 POP POP JUMP JUMPDEST PUSH0 DUP2 SWAP1 POP SWAP3 SWAP2 POP POP JUMP JUMPDEST PUSH0 PUSH2 0xC40 DUP3 PUSH2 0xB41 JUMP JUMPDEST PUSH2 0xC4A DUP2 DUP6 PUSH2 0xC2C JUMP JUMPDEST SWAP4 POP PUSH2 0xC5A DUP2 DUP6 PUSH1 0x20 DUP7 ADD PUSH2 0xB5B JUMP JUMPDEST DUP1 DUP5 ADD SWAP2 POP POP SWAP3 SWAP2 POP POP JUMP JUMPDEST PUSH0 PUSH2 0xC71 DUP3 DUP5 PUSH2 0xC36 JUMP JUMPDEST SWAP2 POP DUP2 SWAP1 POP SWAP3 SWAP2 POP POP JUMP JUMPDEST PUSH0 DUP3 DUP3 MSTORE PUSH1 0x20 DUP3 ADD SWAP1 POP SWAP3 SWAP2 POP POP JUMP JUMPDEST PUSH32 0x55736572206973206E6F74207265676973746572656400000000000000000000 PUSH0 DUP3 ADD MSTORE POP JUMP JUMPDEST PUSH0 PUSH2 0xCC0 PUSH1 0x16 DUP4 PUSH2 0xC7C JUMP JUMPDEST SWAP2 POP PUSH2 0xCCB DUP3 PUSH2 0xC8C JUMP JUMPDEST PUSH1 0x20 DUP3 ADD SWAP1 POP SWAP2 SWAP1 POP JUMP JUMPDEST PUSH0 PUSH1 0x20 DUP3 ADD SWAP1 POP DUP2 DUP2 SUB PUSH0 DUP4 ADD MSTORE PUSH2 0xCED DUP2 PUSH2 0xCB4 JUMP JUMPDEST SWAP1 POP SWAP2 SWAP1 POP JUMP JUMPDEST PUSH32 0x496E76616C6964204F5450000000000000000000000000000000000000000000 PUSH0 DUP3 ADD MSTORE POP JUMP JUMPDEST PUSH0 PUSH2 0xD28 PUSH1 0xB DUP4 PUSH2 0xC7C JUMP JUMPDEST SWAP2 POP PUSH2 0xD33 DUP3 PUSH2 0xCF4 JUMP JUMPDEST PUSH1 0x20 DUP3 ADD SWAP1 POP SWAP2 SWAP1 POP JUMP JUMPDEST PUSH0 PUSH1 0x20 DUP3 ADD SWAP1 POP DUP2 DUP2 SUB PUSH0 DUP4 ADD MSTORE PUSH2 0xD55 DUP2 PUSH2 0xD1C JUMP JUMPDEST SWAP1 POP SWAP2 SWAP1 POP JUMP JUMPDEST PUSH0 DUP2 SWAP1 POP SWAP2 SWAP1 POP JUMP JUMPDEST PUSH2 0xD76 PUSH2 0xD71 DUP3 PUSH2 0xA12 JUMP JUMPDEST PUSH2 0xD5C JUMP JUMPDEST DUP3 MSTORE POP POP JUMP JUMPDEST PUSH0 PUSH2 0xD87 DUP3 DUP7 PUSH2 0xC36 JUMP JUMPDEST SWAP2 POP PUSH2 0xD93 DUP3 DUP6 PUSH2 0xD65 JUMP JUMPDEST PUSH1 0x20 DUP3 ADD SWAP2 POP PUSH2 0xDA3 DUP3 DUP5 PUSH2 0xD65 JUMP JUMPDEST PUSH1 0x20 DUP3 ADD SWAP2 POP DUP2 SWAP1 POP SWAP5 SWAP4 POP POP POP POP JUMP JUMPDEST PUSH32 0x4E487B7100000000000000000000000000000000000000000000000000000000 PUSH0 MSTORE PUSH1 0x12 PUSH1 0x4 MSTORE PUSH1 0x24 PUSH0 REVERT JUMPDEST PUSH0 PUSH2 0xDEB DUP3 PUSH2 0xA12 JUMP JUMPDEST SWAP2 POP PUSH2 0xDF6 DUP4 PUSH2 0xA12 JUMP JUMPDEST SWAP3 POP DUP3 PUSH2 0xE06 JUMPI PUSH2 0xE05 PUSH2 0xDB4 JUMP JUMPDEST JUMPDEST DUP3 DUP3 MOD SWAP1 POP SWAP3 SWAP2 POP POP JUMP JUMPDEST PUSH32 0x4E487B7100000000000000000000000000000000000000000000000000000000 PUSH0 MSTORE PUSH1 0x22 PUSH1 0x4 MSTORE PUSH1 0x24 PUSH0 REVERT JUMPDEST PUSH0 PUSH1 0x2 DUP3 DIV SWAP1 POP PUSH1 0x1 DUP3 AND DUP1 PUSH2 0xE55 JUMPI PUSH1 0x7F DUP3 AND SWAP2 POP JUMPDEST PUSH1 0x20 DUP3 LT DUP2 SUB PUSH2 0xE68 JUMPI PUSH2 0xE67 PUSH2 0xE11 JUMP JUMPDEST JUMPDEST POP SWAP2 SWAP1 POP JUMP JUMPDEST PUSH32 0x4964656E7469666965722063616E6E6F7420626520656D707479000000000000 PUSH0 DUP3 ADD MSTORE POP JUMP JUMPDEST PUSH0 PUSH2 0xEA2 PUSH1 0x1A DUP4 PUSH2 0xC7C JUMP JUMPDEST SWAP2 POP PUSH2 0xEAD DUP3 PUSH2 0xE6E JUMP JUMPDEST PUSH1 0x20 DUP3 ADD SWAP1 POP SWAP2 SWAP1 POP JUMP JUMPDEST PUSH0 PUSH1 0x20 DUP3 ADD SWAP1 POP DUP2 DUP2 SUB PUSH0 DUP4 ADD MSTORE PUSH2 0xECF DUP2 PUSH2 0xE96 JUMP JUMPDEST SWAP1 POP SWAP2 SWAP1 POP JUMP JUMPDEST PUSH32 0x5573657220697320616C72656164792072656769737465726564000000000000 PUSH0 DUP3 ADD MSTORE POP JUMP JUMPDEST PUSH0 PUSH2 0xF0A PUSH1 0x1A DUP4 PUSH2 0xC7C JUMP JUMPDEST SWAP2 POP PUSH2 0xF15 DUP3 PUSH2 0xED6 JUMP JUMPDEST PUSH1 0x20 DUP3 ADD SWAP1 POP SWAP2 SWAP1 POP JUMP JUMPDEST PUSH0 PUSH1 0x20 DUP3 ADD SWAP1 POP DUP2 DUP2 SUB PUSH0 DUP4 ADD MSTORE PUSH2 0xF37 DUP2 PUSH2 0xEFE JUMP JUMPDEST SWAP1 POP SWAP2 SWAP1 POP JUMP JUMPDEST PUSH32 0x4F5450206E6F742067656E65726174656420666F722074686973206964656E74 PUSH0 DUP3 ADD MSTORE PUSH32 0x6966696572000000000000000000000000000000000000000000000000000000 PUSH1 0x20 DUP3 ADD MSTORE POP JUMP JUMPDEST PUSH0 PUSH2 0xF98 PUSH1 0x25 DUP4 PUSH2 0xC7C JUMP JUMPDEST SWAP2 POP PUSH2 0xFA3 DUP3 PUSH2 0xF3E JUMP JUMPDEST PUSH1 0x40 DUP3 ADD SWAP1 POP SWAP2 SWAP1 POP JUMP JUMPDEST PUSH0 PUSH1 0x20 DUP3 ADD SWAP1 POP DUP2 DUP2 SUB PUSH0 DUP4 ADD MSTORE PUSH2 0xFC5 DUP2 PUSH2 0xF8C JUMP JUMPDEST SWAP1 POP SWAP2 SWAP1 POP JUMP INVALID LOG2 PUSH5 0x6970667358 0x22 SLT KECCAK256 0xB6 0xD5 DUP13 MUL MCOPY TIMESTAMP 0xC0 PUSH26 0xA79C44921503E9B1A39C53DC954386943C34992B85B854EF6473 PUSH16 0x6C634300081A00330000000000000000 "
		},
		"gasEstimates": {
			"creation": {
				"codeDepositCost": "819600",
				"executionCost": "855",
				"totalCost": "820455"
			},
			"external": {
				"generateOTP(string)": "infinite",
				"getOTP(string)": "infinite",
				"getUserInfo(string)": "infinite",
				"isUserRegistered(string)": "infinite",
				"loginUser(string)": "infinite",
				"verifyLoginOTP(string,uint256)": "infinite",
				"verifyOTP(string,uint256)": "infinite"
			},
			"internal": {
				"registerUser(string memory)": "infinite"
			}
		},
		"methodIdentifiers": {
			"generateOTP(string)": "bea6f76b",
			"getOTP(string)": "376bbfbc",
			"getUserInfo(string)": "7c9b7fdd",
			"isUserRegistered(string)": "a8cc7784",
			"loginUser(string)": "1c14ce5e",
			"verifyLoginOTP(string,uint256)": "039463f9",
			"verifyOTP(string,uint256)": "87a9be51"
		}
	},
	"abi": [
		{
			"anonymous": false,
			"inputs": [
				{
					"indexed": true,
					"internalType": "string",
					"name": "identifier",
					"type": "string"
				},
				{
					"indexed": false,
					"internalType": "uint256",
					"name": "otp",
					"type": "uint256"
				}
			],
			"name": "OTPGenerated",
			"type": "event"
		},
		{
			"anonymous": false,
			"inputs": [
				{
					"indexed": true,
					"internalType": "string",
					"name": "identifier",
					"type": "string"
				}
			],
			"name": "UserRegistered",
			"type": "event"
		},
		{
			"inputs": [
				{
					"internalType": "string",
					"name": "identifier",
					"type": "string"
				}
			],
			"name": "generateOTP",
			"outputs": [
				{
					"internalType": "uint256",
					"name": "",
					"type": "uint256"
				}
			],
			"stateMutability": "nonpayable",
			"type": "function"
		},
		{
			"inputs": [
				{
					"internalType": "string",
					"name": "identifier",
					"type": "string"
				}
			],
			"name": "getOTP",
			"outputs": [
				{
					"internalType": "uint256",
					"name": "",
					"type": "uint256"
				}
			],
			"stateMutability": "view",
			"type": "function"
		},
		{
			"inputs": [
				{
					"internalType": "string",
					"name": "identifier",
					"type": "string"
				}
			],
			"name": "getUserInfo",
			"outputs": [
				{
					"components": [
						{
							"internalType": "string",
							"name": "identifier",
							"type": "string"
						},
						{
							"internalType": "bool",
							"name": "isRegistered",
							"type": "bool"
						},
						{
							"internalType": "uint256",
							"name": "registrationTimestamp",
							"type": "uint256"
						}
					],
					"internalType": "struct RegisterUser.User",
					"name": "",
					"type": "tuple"
				}
			],
			"stateMutability": "view",
			"type": "function"
		},
		{
			"inputs": [
				{
					"internalType": "string",
					"name": "identifier",
					"type": "string"
				}
			],
			"name": "isUserRegistered",
			"outputs": [
				{
					"internalType": "bool",
					"name": "",
					"type": "bool"
				}
			],
			"stateMutability": "view",
			"type": "function"
		},
		{
			"inputs": [
				{
					"internalType": "string",
					"name": "identifier",
					"type": "string"
				}
			],
			"name": "loginUser",
			"outputs": [
				{
					"internalType": "bool",
					"name": "",
					"type": "bool"
				}
			],
			"stateMutability": "nonpayable",
			"type": "function"
		},
		{
			"inputs": [
				{
					"internalType": "string",
					"name": "identifier",
					"type": "string"
				},
				{
					"internalType": "uint256",
					"name": "otp",
					"type": "uint256"
				}
			],
			"name": "verifyLoginOTP",
			"outputs": [
				{
					"internalType": "bool",
					"name": "",
					"type": "bool"
				}
			],
			"stateMutability": "nonpayable",
			"type": "function"
		},
		{
			"inputs": [
				{
					"internalType": "string",
					"name": "identifier",
					"type": "string"
				},
				{
					"internalType": "uint256",
					"name": "otp",
					"type": "uint256"
				}
			],
			"name": "verifyOTP",
			"outputs": [
				{
					"internalType": "bool",
					"name": "",
					"type": "bool"
				}
			],
			"stateMutability": "nonpayable",
			"type": "function"
		}
	]
}